{
  "contractName": "Monetization",
  "abi": [
    {
      "inputs": [],
      "stateMutability": "nonpayable",
      "type": "constructor"
    },
    {
      "anonymous": false,
      "inputs": [
        {
          "indexed": true,
          "internalType": "address",
          "name": "user",
          "type": "address"
        },
        {
          "indexed": false,
          "internalType": "uint256",
          "name": "amount",
          "type": "uint256"
        }
      ],
      "name": "Donated",
      "type": "event"
    },
    {
      "anonymous": false,
      "inputs": [
        {
          "indexed": true,
          "internalType": "address",
          "name": "user",
          "type": "address"
        }
      ],
      "name": "Subscribed",
      "type": "event"
    },
    {
      "inputs": [
        {
          "internalType": "address",
          "name": "",
          "type": "address"
        }
      ],
      "name": "donations",
      "outputs": [
        {
          "internalType": "uint256",
          "name": "",
          "type": "uint256"
        }
      ],
      "stateMutability": "view",
      "type": "function",
      "constant": true
    },
    {
      "inputs": [],
      "name": "owner",
      "outputs": [
        {
          "internalType": "address",
          "name": "",
          "type": "address"
        }
      ],
      "stateMutability": "view",
      "type": "function",
      "constant": true
    },
    {
      "inputs": [
        {
          "internalType": "address",
          "name": "",
          "type": "address"
        }
      ],
      "name": "premiumUsers",
      "outputs": [
        {
          "internalType": "bool",
          "name": "",
          "type": "bool"
        }
      ],
      "stateMutability": "view",
      "type": "function",
      "constant": true
    },
    {
      "inputs": [],
      "name": "subscriptionFee",
      "outputs": [
        {
          "internalType": "uint256",
          "name": "",
          "type": "uint256"
        }
      ],
      "stateMutability": "view",
      "type": "function",
      "constant": true
    },
    {
      "inputs": [],
      "name": "subscribe",
      "outputs": [],
      "stateMutability": "payable",
      "type": "function",
      "payable": true
    },
    {
      "inputs": [],
      "name": "donate",
      "outputs": [],
      "stateMutability": "payable",
      "type": "function",
      "payable": true
    },
    {
      "inputs": [],
      "name": "withdraw",
      "outputs": [],
      "stateMutability": "nonpayable",
      "type": "function"
    },
    {
      "inputs": [
        {
          "internalType": "uint256",
          "name": "_fee",
          "type": "uint256"
        }
      ],
      "name": "setSubscriptionFee",
      "outputs": [],
      "stateMutability": "nonpayable",
      "type": "function"
    }
  ],
  "bytecode": "0x608060405267016345785d8a000060015534801561001c57600080fd5b50336000806101000a81548173ffffffffffffffffffffffffffffffffffffffff021916908373ffffffffffffffffffffffffffffffffffffffff1602179055506108e18061006c6000396000f3fe60806040526004361061007b5760003560e01c80638f449a051161004e5780638f449a0514610116578063cc6cb19a14610120578063e2b2d4821461015d578063ed88c68e1461019a5761007b565b80630aa0a175146100805780633ccfd60b146100ab5780636ac84956146100c25780638da5cb5b146100eb575b600080fd5b34801561008c57600080fd5b506100956101a4565b6040516100a29190610784565b60405180910390f35b3480156100b757600080fd5b506100c06101aa565b005b3480156100ce57600080fd5b506100e960048036038101906100e491906105b2565b6102a1565b005b3480156100f757600080fd5b50610100610339565b60405161010d91906106ee565b60405180910390f35b61011e61035d565b005b34801561012c57600080fd5b5061014760048036038101906101429190610589565b61043e565b6040516101549190610784565b60405180910390f35b34801561016957600080fd5b50610184600480360381019061017f9190610589565b610456565b6040516101919190610709565b60405180910390f35b6101a2610476565b005b60015481565b60008054906101000a900473ffffffffffffffffffffffffffffffffffffffff1673ffffffffffffffffffffffffffffffffffffffff163373ffffffffffffffffffffffffffffffffffffffff1614610238576040517f08c379a000000000000000000000000000000000000000000000000000000000815260040161022f90610764565b60405180910390fd5b60008054906101000a900473ffffffffffffffffffffffffffffffffffffffff1673ffffffffffffffffffffffffffffffffffffffff166108fc479081150290604051600060405180830381858888f1935050505015801561029e573d6000803e3d6000fd5b50565b60008054906101000a900473ffffffffffffffffffffffffffffffffffffffff1673ffffffffffffffffffffffffffffffffffffffff163373ffffffffffffffffffffffffffffffffffffffff161461032f576040517f08c379a000000000000000000000000000000000000000000000000000000000815260040161032690610764565b60405180910390fd5b8060018190555050565b60008054906101000a900473ffffffffffffffffffffffffffffffffffffffff1681565b60015434146103a1576040517f08c379a000000000000000000000000000000000000000000000000000000000815260040161039890610744565b60405180910390fd5b6001600260003373ffffffffffffffffffffffffffffffffffffffff1673ffffffffffffffffffffffffffffffffffffffff16815260200190815260200160002060006101000a81548160ff0219169083151502179055503373ffffffffffffffffffffffffffffffffffffffff167fa88fac53823b534c72d6958345adbe6801e072750d83b490d52ebbac51473a6360405160405180910390a2565b60036020528060005260406000206000915090505481565b60026020528060005260406000206000915054906101000a900460ff1681565b600034116104b9576040517f08c379a00000000000000000000000000000000000000000000000000000000081526004016104b090610724565b60405180910390fd5b34600360003373ffffffffffffffffffffffffffffffffffffffff1673ffffffffffffffffffffffffffffffffffffffff168152602001908152602001600020600082825461050891906107b0565b925050819055503373ffffffffffffffffffffffffffffffffffffffff167f2a01595cddf097c90216094025db714da3f4e5bd8877b56ba86a24ecead8e543346040516105559190610784565b60405180910390a2565b60008135905061056e8161087d565b92915050565b60008135905061058381610894565b92915050565b60006020828403121561059b57600080fd5b60006105a98482850161055f565b91505092915050565b6000602082840312156105c457600080fd5b60006105d284828501610574565b91505092915050565b6105e481610806565b82525050565b6105f381610818565b82525050565b600061060660298361079f565b91507f446f6e6174696f6e20616d6f756e74206d75737420626520677265617465722060008301527f7468616e207a65726f00000000000000000000000000000000000000000000006020830152604082019050919050565b600061066c601d8361079f565b91507f496e636f727265637420737562736372697074696f6e20616d6f756e740000006000830152602082019050919050565b60006106ac60168361079f565b91507f4e6f742074686520636f6e7472616374206f776e6572000000000000000000006000830152602082019050919050565b6106e881610844565b82525050565b600060208201905061070360008301846105db565b92915050565b600060208201905061071e60008301846105ea565b92915050565b6000602082019050818103600083015261073d816105f9565b9050919050565b6000602082019050818103600083015261075d8161065f565b9050919050565b6000602082019050818103600083015261077d8161069f565b9050919050565b600060208201905061079960008301846106df565b92915050565b600082825260208201905092915050565b60006107bb82610844565b91506107c683610844565b9250827fffffffffffffffffffffffffffffffffffffffffffffffffffffffffffffffff038211156107fb576107fa61084e565b5b828201905092915050565b600061081182610824565b9050919050565b60008115159050919050565b600073ffffffffffffffffffffffffffffffffffffffff82169050919050565b6000819050919050565b7f4e487b7100000000000000000000000000000000000000000000000000000000600052601160045260246000fd5b61088681610806565b811461089157600080fd5b50565b61089d81610844565b81146108a857600080fd5b5056fea264697066735822122000826518a225bcc02f0db3c3c0b2a24de9f2d5e1b00f16d0c2504a4308c8452e64736f6c63430008000033",
  "immutableReferences": {},
  "source": "// SPDX-License-Identifier: MIT\npragma solidity ^0.8.0;\n\ncontract Monetization {\n    address public owner;\n    uint public subscriptionFee = 0.1 ether;\n    mapping(address => bool) public premiumUsers;\n    mapping(address => uint) public donations;\n\n    event Subscribed(address indexed user);\n    event Donated(address indexed user, uint amount);\n\n    modifier onlyOwner() {\n        require(msg.sender == owner, \"Not the contract owner\");\n        _;\n    }\n\n    constructor() {\n        owner = msg.sender;\n    }\n\n    function subscribe() public payable {\n        require(msg.value == subscriptionFee, \"Incorrect subscription amount\");\n        premiumUsers[msg.sender] = true;\n        emit Subscribed(msg.sender);\n    }\n\n    function donate() public payable {\n        require(msg.value > 0, \"Donation amount must be greater than zero\");\n        donations[msg.sender] += msg.value;\n        emit Donated(msg.sender, msg.value);\n    }\n\n    function withdraw() public onlyOwner {\n        payable(owner).transfer(address(this).balance);\n    }\n\n    function setSubscriptionFee(uint _fee) public onlyOwner {\n        subscriptionFee = _fee;\n    }\n}\n",
  "sourcePath": "/Users/abydinv0011/Documents/blocVote/contracts/Monetization.sol",
  "compiler": {
    "name": "solc",
    "version": "0.8.0+commit.c7dfd78e.Emscripten.clang"
  },
  "schemaVersion": "3.4.16",
  "updatedAt": "2024-05-19T11:26:00.076Z",
  "networkType": "ethereum",
  "devdoc": {
    "kind": "dev",
    "methods": {},
    "version": 1
  },
  "userdoc": {
    "kind": "user",
    "methods": {},
    "version": 1
  }
}