{
  "contractName": "Voting",
  "abi": [
    {
      "anonymous": false,
      "inputs": [
        {
          "indexed": false,
          "internalType": "uint256",
          "name": "pollId",
          "type": "uint256"
        },
        {
          "indexed": false,
          "internalType": "string",
          "name": "title",
          "type": "string"
        }
      ],
      "name": "PollCreated",
      "type": "event"
    },
    {
      "anonymous": false,
      "inputs": [
        {
          "indexed": false,
          "internalType": "uint256",
          "name": "pollId",
          "type": "uint256"
        },
        {
          "indexed": false,
          "internalType": "uint256",
          "name": "candidateId",
          "type": "uint256"
        }
      ],
      "name": "VotedEvent",
      "type": "event"
    },
    {
      "inputs": [],
      "name": "fee",
      "outputs": [
        {
          "internalType": "uint256",
          "name": "",
          "type": "uint256"
        }
      ],
      "stateMutability": "view",
      "type": "function",
      "constant": true
    },
    {
      "inputs": [],
      "name": "pollCount",
      "outputs": [
        {
          "internalType": "uint256",
          "name": "",
          "type": "uint256"
        }
      ],
      "stateMutability": "view",
      "type": "function",
      "constant": true
    },
    {
      "inputs": [
        {
          "internalType": "uint256",
          "name": "",
          "type": "uint256"
        }
      ],
      "name": "polls",
      "outputs": [
        {
          "internalType": "uint256",
          "name": "id",
          "type": "uint256"
        },
        {
          "internalType": "string",
          "name": "title",
          "type": "string"
        },
        {
          "internalType": "address",
          "name": "creator",
          "type": "address"
        },
        {
          "internalType": "uint256",
          "name": "creationTime",
          "type": "uint256"
        },
        {
          "internalType": "uint256",
          "name": "candidatesCount",
          "type": "uint256"
        }
      ],
      "stateMutability": "view",
      "type": "function",
      "constant": true
    },
    {
      "inputs": [
        {
          "internalType": "address",
          "name": "",
          "type": "address"
        }
      ],
      "name": "premiumUsers",
      "outputs": [
        {
          "internalType": "bool",
          "name": "",
          "type": "bool"
        }
      ],
      "stateMutability": "view",
      "type": "function",
      "constant": true
    },
    {
      "inputs": [
        {
          "internalType": "string",
          "name": "_title",
          "type": "string"
        }
      ],
      "name": "addPoll",
      "outputs": [],
      "stateMutability": "payable",
      "type": "function",
      "payable": true
    },
    {
      "inputs": [
        {
          "internalType": "uint256",
          "name": "_pollId",
          "type": "uint256"
        },
        {
          "internalType": "string",
          "name": "_name",
          "type": "string"
        }
      ],
      "name": "addCandidate",
      "outputs": [],
      "stateMutability": "nonpayable",
      "type": "function"
    },
    {
      "inputs": [
        {
          "internalType": "uint256",
          "name": "_pollId",
          "type": "uint256"
        },
        {
          "internalType": "uint256",
          "name": "_candidateId",
          "type": "uint256"
        }
      ],
      "name": "vote",
      "outputs": [],
      "stateMutability": "nonpayable",
      "type": "function"
    },
    {
      "inputs": [],
      "name": "subscribe",
      "outputs": [],
      "stateMutability": "payable",
      "type": "function",
      "payable": true
    }
  ],
  "bytecode": "0x6080604052662386f26fc1000060005534801561001b57600080fd5b50610ee48061002b6000396000f3fe60806040526004361061007b5760003560e01c8063ac2f00741161004e578063ac2f0074146100fa578063b384abef1461013b578063ddca3f4314610164578063e2b2d4821461018f5761007b565b80631750a3d0146100805780637c31407b146100a95780638f449a05146100c55780639207891d146100cf575b600080fd5b34801561008c57600080fd5b506100a760048036038101906100a29190610901565b6101cc565b005b6100c360048036038101906100be9190610897565b6102fb565b005b6100cd61041f565b005b3480156100db57600080fd5b506100e46104c3565b6040516100f19190610b92565b60405180910390f35b34801561010657600080fd5b50610121600480360381019061011c91906108d8565b6104c9565b604051610132959493929190610bdd565b60405180910390f35b34801561014757600080fd5b50610162600480360381019061015d9190610955565b6105a7565b005b34801561017057600080fd5b50610179610713565b6040516101869190610b92565b60405180910390f35b34801561019b57600080fd5b506101b660048036038101906101b1919061086e565b610719565b6040516101c39190610af7565b60405180910390f35b600360003373ffffffffffffffffffffffffffffffffffffffff1673ffffffffffffffffffffffffffffffffffffffff16815260200190815260200160002060009054906101000a900460ff16610258576040517f08c379a000000000000000000000000000000000000000000000000000000000815260040161024f90610b32565b60405180910390fd5b600060026000848152602001908152602001600020905080600601600081548092919061028490610d99565b91905055506040518060600160405280826006015481526020018381526020016000815250816004016000836006015481526020019081526020016000206000820151816000015560208201518160010190805190602001906102e8929190610739565b5060408201518160020155905050505050565b600054341461033f576040517f08c379a000000000000000000000000000000000000000000000000000000000815260040161033690610b12565b60405180910390fd5b6001600081548092919061035290610d99565b919050555060006002600060015481526020019081526020016000209050600154816000018190555081816001019080519060200190610393929190610739565b50338160020160006101000a81548173ffffffffffffffffffffffffffffffffffffffff021916908373ffffffffffffffffffffffffffffffffffffffff1602179055504281600301819055507f65d5ac2bf1bca69566bef1affdfca5bb37b9577fc0b3af4c7c4638225e67b39c60015483604051610413929190610bad565b60405180910390a15050565b67016345785d8a00003414610469576040517f08c379a000000000000000000000000000000000000000000000000000000000815260040161046090610b52565b60405180910390fd5b6001600360003373ffffffffffffffffffffffffffffffffffffffff1673ffffffffffffffffffffffffffffffffffffffff16815260200190815260200160002060006101000a81548160ff021916908315150217905550565b60015481565b60026020528060005260406000206000915090508060000154908060010180546104f290610d67565b80601f016020809104026020016040519081016040528092919081815260200182805461051e90610d67565b801561056b5780601f106105405761010080835404028352916020019161056b565b820191906000526020600020905b81548152906001019060200180831161054e57829003601f168201915b5050505050908060020160009054906101000a900473ffffffffffffffffffffffffffffffffffffffff16908060030154908060060154905085565b60006002600084815260200190815260200160002090508060050160003373ffffffffffffffffffffffffffffffffffffffff1673ffffffffffffffffffffffffffffffffffffffff16815260200190815260200160002060009054906101000a900460ff161561064d576040517f08c379a000000000000000000000000000000000000000000000000000000000815260040161064490610b72565b60405180910390fd5b60018160050160003373ffffffffffffffffffffffffffffffffffffffff1673ffffffffffffffffffffffffffffffffffffffff16815260200190815260200160002060006101000a81548160ff02191690831515021790555080600401600083815260200190815260200160002060020160008154809291906106d090610d99565b91905055507fac631cf963e26ff421b915fc32e8d8c6b1898317dfa37a2f94e77adf3f6b8b0d8383604051610706929190610c37565b60405180910390a1505050565b60005481565b60036020528060005260406000206000915054906101000a900460ff1681565b82805461074590610d67565b90600052602060002090601f01602090048101928261076757600085556107ae565b82601f1061078057805160ff19168380011785556107ae565b828001600101855582156107ae579182015b828111156107ad578251825591602001919060010190610792565b5b5090506107bb91906107bf565b5090565b5b808211156107d85760008160009055506001016107c0565b5090565b60006107ef6107ea84610c91565b610c60565b90508281526020810184848401111561080757600080fd5b610812848285610d25565b509392505050565b60008135905061082981610e80565b92915050565b600082601f83011261084057600080fd5b81356108508482602086016107dc565b91505092915050565b60008135905061086881610e97565b92915050565b60006020828403121561088057600080fd5b600061088e8482850161081a565b91505092915050565b6000602082840312156108a957600080fd5b600082013567ffffffffffffffff8111156108c357600080fd5b6108cf8482850161082f565b91505092915050565b6000602082840312156108ea57600080fd5b60006108f884828501610859565b91505092915050565b6000806040838503121561091457600080fd5b600061092285828601610859565b925050602083013567ffffffffffffffff81111561093f57600080fd5b61094b8582860161082f565b9150509250929050565b6000806040838503121561096857600080fd5b600061097685828601610859565b925050602061098785828601610859565b9150509250929050565b61099a81610cdd565b82525050565b6109a981610cef565b82525050565b60006109ba82610cc1565b6109c48185610ccc565b93506109d4818560208601610d34565b6109dd81610e6f565b840191505092915050565b60006109f5601483610ccc565b91507f496e636f72726563742066656520616d6f756e740000000000000000000000006000830152602082019050919050565b6000610a35601283610ccc565b91507f4e6f742061207072656d69756d207573657200000000000000000000000000006000830152602082019050919050565b6000610a75601d83610ccc565b91507f496e636f727265637420737562736372697074696f6e20616d6f756e740000006000830152602082019050919050565b6000610ab5601683610ccc565b91507f596f75206861766520616c726561647920766f746564000000000000000000006000830152602082019050919050565b610af181610d1b565b82525050565b6000602082019050610b0c60008301846109a0565b92915050565b60006020820190508181036000830152610b2b816109e8565b9050919050565b60006020820190508181036000830152610b4b81610a28565b9050919050565b60006020820190508181036000830152610b6b81610a68565b9050919050565b60006020820190508181036000830152610b8b81610aa8565b9050919050565b6000602082019050610ba76000830184610ae8565b92915050565b6000604082019050610bc26000830185610ae8565b8181036020830152610bd481846109af565b90509392505050565b600060a082019050610bf26000830188610ae8565b8181036020830152610c0481876109af565b9050610c136040830186610991565b610c206060830185610ae8565b610c2d6080830184610ae8565b9695505050505050565b6000604082019050610c4c6000830185610ae8565b610c596020830184610ae8565b9392505050565b6000604051905081810181811067ffffffffffffffff82111715610c8757610c86610e40565b5b8060405250919050565b600067ffffffffffffffff821115610cac57610cab610e40565b5b601f19601f8301169050602081019050919050565b600081519050919050565b600082825260208201905092915050565b6000610ce882610cfb565b9050919050565b60008115159050919050565b600073ffffffffffffffffffffffffffffffffffffffff82169050919050565b6000819050919050565b82818337600083830152505050565b60005b83811015610d52578082015181840152602081019050610d37565b83811115610d61576000848401525b50505050565b60006002820490506001821680610d7f57607f821691505b60208210811415610d9357610d92610e11565b5b50919050565b6000610da482610d1b565b91507fffffffffffffffffffffffffffffffffffffffffffffffffffffffffffffffff821415610dd757610dd6610de2565b5b600182019050919050565b7f4e487b7100000000000000000000000000000000000000000000000000000000600052601160045260246000fd5b7f4e487b7100000000000000000000000000000000000000000000000000000000600052602260045260246000fd5b7f4e487b7100000000000000000000000000000000000000000000000000000000600052604160045260246000fd5b6000601f19601f8301169050919050565b610e8981610cdd565b8114610e9457600080fd5b50565b610ea081610d1b565b8114610eab57600080fd5b5056fea2646970667358221220001084d39a298542a02c872f3fd0088f25569bbafeada7b63fd7e132adf6b1da64736f6c63430008000033",
  "immutableReferences": {},
  "source": "// SPDX-License-Identifier: MIT\npragma solidity ^0.8.0;\n\ncontract Voting {\n    struct Candidate {\n        uint id;\n        string name;\n        uint voteCount;\n    }\n\n    struct Poll {\n        uint id;\n        string title;\n        address creator;\n        uint creationTime;\n        mapping(uint => Candidate) candidates;\n        mapping(address => bool) voters; // Add this line\n        uint candidatesCount;\n    }\n\n    uint public fee = 0.01 ether;\n    uint public pollCount;\n    mapping(uint => Poll) public polls;\n    mapping(address => bool) public premiumUsers;\n\n    event PollCreated(uint pollId, string title);\n    event VotedEvent(uint pollId, uint candidateId);\n\n    modifier onlyPremium() {\n        require(premiumUsers[msg.sender], \"Not a premium user\");\n        _;\n    }\n\n    function addPoll(string memory _title) public payable {\n        require(msg.value == fee, \"Incorrect fee amount\");\n        pollCount++;\n        Poll storage newPoll = polls[pollCount];\n        newPoll.id = pollCount;\n        newPoll.title = _title;\n        newPoll.creator = msg.sender;\n        newPoll.creationTime = block.timestamp;\n\n        emit PollCreated(pollCount, _title);\n    }\n\n    function addCandidate(uint _pollId, string memory _name) public onlyPremium {\n        Poll storage poll = polls[_pollId];\n        poll.candidatesCount++;\n        poll.candidates[poll.candidatesCount] = Candidate(poll.candidatesCount, _name, 0);\n    }\n\n    function vote(uint _pollId, uint _candidateId) public {\n        Poll storage poll = polls[_pollId];\n        require(!poll.voters[msg.sender], \"You have already voted\"); // Check if the voter has already voted\n\n        poll.voters[msg.sender] = true; // Mark the voter as having voted\n        poll.candidates[_candidateId].voteCount++;\n\n        emit VotedEvent(_pollId, _candidateId);\n    }\n\n    function subscribe() public payable {\n        require(msg.value == 0.1 ether, \"Incorrect subscription amount\");\n        premiumUsers[msg.sender] = true;\n    }\n}\n",
  "sourcePath": "/Users/abydinv0011/Documents/blocVote/contracts/Voting.sol",
  "compiler": {
    "name": "solc",
    "version": "0.8.0+commit.c7dfd78e.Emscripten.clang"
  },
  "schemaVersion": "3.4.16",
  "updatedAt": "2024-05-19T11:26:00.070Z",
  "networkType": "ethereum",
  "devdoc": {
    "kind": "dev",
    "methods": {},
    "version": 1
  },
  "userdoc": {
    "kind": "user",
    "methods": {},
    "version": 1
  }
}